{
  "contractName": "Pool",
  "abi": [
    {
      "inputs": [],
      "payable": false,
      "stateMutability": "nonpayable",
      "type": "constructor"
    },
    {
      "constant": true,
      "inputs": [
        {
          "internalType": "address",
          "name": "",
          "type": "address"
        }
      ],
      "name": "players",
      "outputs": [
        {
          "internalType": "uint256",
          "name": "",
          "type": "uint256"
        }
      ],
      "payable": false,
      "stateMutability": "view",
      "type": "function"
    },
    {
      "constant": false,
      "inputs": [
        {
          "internalType": "address",
          "name": "conflux_add",
          "type": "address"
        }
      ],
      "name": "enter",
      "outputs": [],
      "payable": true,
      "stateMutability": "payable",
      "type": "function"
    },
    {
      "constant": false,
      "inputs": [
        {
          "internalType": "address",
          "name": "conflux_add",
          "type": "address"
        }
      ],
      "name": "del",
      "outputs": [],
      "payable": false,
      "stateMutability": "nonpayable",
      "type": "function"
    },
    {
      "constant": false,
      "inputs": [
        {
          "internalType": "uint256",
          "name": "amount",
          "type": "uint256"
        }
      ],
      "name": "withdraw_eth",
      "outputs": [],
      "payable": false,
      "stateMutability": "nonpayable",
      "type": "function"
    },
    {
      "constant": false,
      "inputs": [
        {
          "internalType": "uint256",
          "name": "amount",
          "type": "uint256"
        }
      ],
      "name": "deposit_aave",
      "outputs": [],
      "payable": false,
      "stateMutability": "nonpayable",
      "type": "function"
    },
    {
      "constant": false,
      "inputs": [
        {
          "internalType": "uint256",
          "name": "amount",
          "type": "uint256"
        }
      ],
      "name": "redeem_aave",
      "outputs": [],
      "payable": false,
      "stateMutability": "nonpayable",
      "type": "function"
    }
  ],
  "bytecode": "0x608060405273506b0b2cf20faa8f38a4e2b524ee43e1f4458cc573ffffffffffffffffffffffffffffffffffffffff16630261bf8b6040518163ffffffff1660e01b815260040160206040518083038186803b15801561005e57600080fd5b505afa158015610072573d6000803e3d6000fd5b505050506040513d602081101561008857600080fd5b8101908080519060200190929190505050600260006101000a81548173ffffffffffffffffffffffffffffffffffffffff021916908373ffffffffffffffffffffffffffffffffffffffff16021790555073eeeeeeeeeeeeeeeeeeeeeeeeeeeeeeeeeeeeeeee600360006101000a81548173ffffffffffffffffffffffffffffffffffffffff021916908373ffffffffffffffffffffffffffffffffffffffff16021790555073d483b49f2d55d2c53d32be6eff735cb001880f79600460006101000a81548173ffffffffffffffffffffffffffffffffffffffff021916908373ffffffffffffffffffffffffffffffffffffffff16021790555034801561018f57600080fd5b50336000806101000a81548173ffffffffffffffffffffffffffffffffffffffff021916908373ffffffffffffffffffffffffffffffffffffffff1602179055506107c4806101df6000396000f3fe6080604052600436106100555760003560e01c806330a95e671461005a5780634e5d1fd814610095578063b9caebf4146100d0578063c56edf4e14610121578063d014c01f1461015c578063e2eb41ff146101a0575b600080fd5b34801561006657600080fd5b506100936004803603602081101561007d57600080fd5b8101908080359060200190929190505050610205565b005b3480156100a157600080fd5b506100ce600480360360208110156100b857600080fd5b81019080803590602001909291905050506102d6565b005b3480156100dc57600080fd5b5061011f600480360360208110156100f357600080fd5b81019080803573ffffffffffffffffffffffffffffffffffffffff1690602001909291905050506103bf565b005b34801561012d57600080fd5b5061015a6004803603602081101561014457600080fd5b810190808035906020019092919050505061045e565b005b61019e6004803603602081101561017257600080fd5b81019080803573ffffffffffffffffffffffffffffffffffffffff169060200190929190505050610730565b005b3480156101ac57600080fd5b506101ef600480360360208110156101c357600080fd5b81019080803573ffffffffffffffffffffffffffffffffffffffff169060200190929190505050610777565b6040518082815260200191505060405180910390f35b6000809054906101000a900473ffffffffffffffffffffffffffffffffffffffff1673ffffffffffffffffffffffffffffffffffffffff163373ffffffffffffffffffffffffffffffffffffffff161461025e57600080fd5b4781111561026b57600080fd5b6000809054906101000a900473ffffffffffffffffffffffffffffffffffffffff1673ffffffffffffffffffffffffffffffffffffffff166108fc829081150290604051600060405180830381858888f193505050501580156102d2573d6000803e3d6000fd5b5050565b6000809054906101000a900473ffffffffffffffffffffffffffffffffffffffff1673ffffffffffffffffffffffffffffffffffffffff163373ffffffffffffffffffffffffffffffffffffffff161461032f57600080fd5b600460009054906101000a900473ffffffffffffffffffffffffffffffffffffffff1673ffffffffffffffffffffffffffffffffffffffff1663db006a75826040518263ffffffff1660e01b815260040180828152602001915050600060405180830381600087803b1580156103a457600080fd5b505af11580156103b8573d6000803e3d6000fd5b5050505050565b6000809054906101000a900473ffffffffffffffffffffffffffffffffffffffff1673ffffffffffffffffffffffffffffffffffffffff163373ffffffffffffffffffffffffffffffffffffffff161461041857600080fd5b600160008273ffffffffffffffffffffffffffffffffffffffff1673ffffffffffffffffffffffffffffffffffffffff1681526020019081526020016000206000905550565b6000809054906101000a900473ffffffffffffffffffffffffffffffffffffffff1673ffffffffffffffffffffffffffffffffffffffff163373ffffffffffffffffffffffffffffffffffffffff16146104b757600080fd5b478111156104c457600080fd5b600360009054906101000a900473ffffffffffffffffffffffffffffffffffffffff1673ffffffffffffffffffffffffffffffffffffffff1663095ea7b373506b0b2cf20faa8f38a4e2b524ee43e1f4458cc573ffffffffffffffffffffffffffffffffffffffff1663ed6ff7606040518163ffffffff1660e01b815260040160206040518083038186803b15801561055c57600080fd5b505afa158015610570573d6000803e3d6000fd5b505050506040513d602081101561058657600080fd5b8101908080519060200190929190505050836040518363ffffffff1660e01b8152600401808373ffffffffffffffffffffffffffffffffffffffff1673ffffffffffffffffffffffffffffffffffffffff16815260200182815260200192505050602060405180830381600087803b15801561060157600080fd5b505af1158015610615573d6000803e3d6000fd5b505050506040513d602081101561062b57600080fd5b810190808051906020019092919050505050600260009054906101000a900473ffffffffffffffffffffffffffffffffffffffff1673ffffffffffffffffffffffffffffffffffffffff1663d2d0e066600360009054906101000a900473ffffffffffffffffffffffffffffffffffffffff168360006040518463ffffffff1660e01b8152600401808473ffffffffffffffffffffffffffffffffffffffff1673ffffffffffffffffffffffffffffffffffffffff1681526020018381526020018261ffff1681526020019350505050600060405180830381600087803b15801561071557600080fd5b505af1158015610729573d6000803e3d6000fd5b5050505050565b34600160008373ffffffffffffffffffffffffffffffffffffffff1673ffffffffffffffffffffffffffffffffffffffff1681526020019081526020016000208190555050565b6001602052806000526040600020600091509050548156fea265627a7a7231582050de5fb155de5aae6e35c3b875df3b88fdcf6bf45717baca8c59f7f0c487a66f64736f6c63430005100032",
  "source": "//pragma solidity ^0.5.16;\n//pragma solidity ^0.7.1;\n//pragma solidity ^0.5.16;\npragma solidity ^0.5.16;\n//import \"openzeppelin-solidity/contracts/ownership/Ownable.sol\";\n//import \"openzeppelin-solidity/contracts/token/ERC20/IERC20.sol\";\nimport \"@openzeppelin/contracts/token/ERC20/IERC20.sol\";\nimport \"@openzeppelin/contracts/ownership/Ownable.sol\";\nimport \"@studydefi/money-legos/aave/contracts/ILendingPool.sol\";\nimport \"@studydefi/money-legos/aave/contracts/ILendingPoolAddressesProvider.sol\";\n\n//import \"./IERC20.sol\";\n//import 'https://github.com/aave/aave-protocol/blob/master/contracts/configuration/LendingPoolAddressesProvider.sol';\n//import \"@studydefi/money-legos/aave/contracts/LendingPoolAddressesProvider.sol\";\n//import \"openzeppelin-solidity/contracts/token/ERC20/IERC20.sol\";\n//import \"./IERC20.sol\";\n\n//integrate aave:  https://soliditydeveloper.com/integrate-aave\ninterface IaToken {\n    function balanceOf(address _user) external view returns (uint256);\n    function redeem(uint256 _amount) external;\n}\n\n\ncontract Pool {\n    address payable manager;\n    mapping (address => uint) public players; \n    address constant AaveLendingPoolAddressProviderAddress =0x506B0B2CF20FAA8f38a4E2B524EE43e1f4458Cc5;// Kovan address, for other addresses: https://docs.aave.com/developers/developing-on-aave/deployed-contract-instances\n    //uint public pool;\n    // Retrieve LendingPool address\n    //LendingPoolAddressesProvider provider = LendingPoolAddressesProvider(address(0x506B0B2CF20FAA8f38a4E2B524EE43e1f4458Cc5)); // Kovan address, for other addresses: https://docs.aave.com/developers/developing-on-aave/deployed-contract-instances\n    //LendingPool lendingPool = LendingPool(provider.getLendingPool());\n    ILendingPool lendingPool = ILendingPool(\n            ILendingPoolAddressesProvider(AaveLendingPoolAddressProviderAddress)\n                .getLendingPool()\n    );\n\n    address ethAddress = address(0xEeeeeEeeeEeEeeEeEeEeeEEEeeeeEeeeeeeeEEeE); // Kovan ETH address\n    \n    /// Instantiation of the aToken address\n    //aToken aTokenInstance = AToken(0xD483B49F2d55D2c53D32bE6efF735cB001880F79); //aETH address on Kovan network\n    IaToken aTokenInstance = IaToken(0xD483B49F2d55D2c53D32bE6efF735cB001880F79);\n\n    constructor() public {\n        manager = msg.sender;\n        \n    }\n\n    function enter(address conflux_add) public payable {\n        players[conflux_add] = msg.value;\n    }\n\n    function del(address conflux_add) public {\n        require(msg.sender == manager);\n        delete(players[conflux_add]);\n    }\n\n\n    function withdraw_eth(uint amount) public {\n        require(msg.sender == manager);\n        require(amount <= address(this).balance);\n        manager.transfer(amount);\n    }\n\n    function deposit_aave(uint amount) public {\n        //https://docs.aave.com/developers/developing-on-aave/the-protocol/lendingpool\n        require(msg.sender == manager);\n        require(amount <= address(this).balance);\n        // Approve LendingPool contract to move your DAI\n        //IERC20(ethAddress).approve(provider.getLendingPoolCore(), amount);\n        IERC20(ethAddress).approve(ILendingPoolAddressesProvider(AaveLendingPoolAddressProviderAddress).getLendingPoolCore(), amount);\n        lendingPool.deposit(ethAddress, amount, 0);\n    }\n\n\n\n    function redeem_aave(uint amount) public {\n        //https://docs.aave.com/developers/developing-on-aave/the-protocol/atokens\n        require(msg.sender == manager);\n        aTokenInstance.redeem(amount);\n    }\n    \n}",
  "sourcePath": "/Users/Mac/project/kytest/contracts/Pool.sol",
  "compiler": {
    "name": "solc",
    "version": "0.5.16+commit.9c3226ce.Emscripten.clang"
  },
  "schemaVersion": "3.3.2",
  "updatedAt": "2020-11-21T14:02:55.790Z",
  "networkType": "ethereum",
  "devdoc": {
    "methods": {}
  },
  "userdoc": {
    "methods": {}
  }
}