{
  "contractName": "Lottery",
  "abi": [
    {
      "inputs": [],
      "stateMutability": "nonpayable",
      "type": "constructor"
    },
    {
      "anonymous": false,
      "inputs": [
        {
          "indexed": false,
          "internalType": "address",
          "name": "_winner",
          "type": "address"
        },
        {
          "indexed": false,
          "internalType": "uint256",
          "name": "_id",
          "type": "uint256"
        },
        {
          "indexed": false,
          "internalType": "uint256",
          "name": "_amount",
          "type": "uint256"
        }
      ],
      "name": "AnnounceWinner",
      "type": "event"
    },
    {
      "anonymous": false,
      "inputs": [
        {
          "indexed": false,
          "internalType": "address",
          "name": "_user",
          "type": "address"
        },
        {
          "indexed": false,
          "internalType": "uint256",
          "name": "_balance",
          "type": "uint256"
        },
        {
          "indexed": false,
          "internalType": "uint256",
          "name": "_inputvalue",
          "type": "uint256"
        },
        {
          "indexed": false,
          "internalType": "uint256",
          "name": "amount",
          "type": "uint256"
        }
      ],
      "name": "CheckData",
      "type": "event"
    },
    {
      "inputs": [],
      "name": "manager",
      "outputs": [
        {
          "internalType": "address",
          "name": "",
          "type": "address"
        }
      ],
      "stateMutability": "view",
      "type": "function"
    },
    {
      "inputs": [
        {
          "internalType": "uint256",
          "name": "",
          "type": "uint256"
        }
      ],
      "name": "players",
      "outputs": [
        {
          "internalType": "address payable",
          "name": "",
          "type": "address"
        }
      ],
      "stateMutability": "view",
      "type": "function"
    },
    {
      "inputs": [],
      "name": "enter",
      "outputs": [],
      "stateMutability": "payable",
      "type": "function"
    },
    {
      "inputs": [],
      "name": "getPlayers",
      "outputs": [
        {
          "internalType": "address payable[]",
          "name": "",
          "type": "address[]"
        }
      ],
      "stateMutability": "view",
      "type": "function"
    },
    {
      "inputs": [],
      "name": "getPool",
      "outputs": [
        {
          "internalType": "uint256",
          "name": "",
          "type": "uint256"
        }
      ],
      "stateMutability": "view",
      "type": "function"
    }
  ],
  "bytecode": "0x6080604052738ade61a7a0e8e66b479f72f896e0a525478590b1600360006101000a81548173ffffffffffffffffffffffffffffffffffffffff021916908373ffffffffffffffffffffffffffffffffffffffff160217905550600360009054906101000a900473ffffffffffffffffffffffffffffffffffffffff16600460006101000a81548173ffffffffffffffffffffffffffffffffffffffff021916908373ffffffffffffffffffffffffffffffffffffffff1602179055503480156100c857600080fd5b50336000806101000a81548173ffffffffffffffffffffffffffffffffffffffff021916908373ffffffffffffffffffffffffffffffffffffffff1602179055506001600281905550610afd806101206000396000f3fe60806040526004361061004a5760003560e01c8063026b1d5f1461004f578063481c6a751461007a5780638b5b9ccc146100bb578063e97dcb6214610127578063f71d96cb14610131575b600080fd5b34801561005b57600080fd5b50610064610196565b6040518082815260200191505060405180910390f35b34801561008657600080fd5b5061008f61019e565b604051808273ffffffffffffffffffffffffffffffffffffffff16815260200191505060405180910390f35b3480156100c757600080fd5b506100d06101c2565b6040518080602001828103825283818151815260200191508051906020019060200280838360005b838110156101135780820151818401526020810190506100f8565b505050509050019250505060405180910390f35b61012f610250565b005b34801561013d57600080fd5b5061016a6004803603602081101561015457600080fd5b810190808035906020019092919050505061061d565b604051808273ffffffffffffffffffffffffffffffffffffffff16815260200191505060405180910390f35b600047905090565b60008054906101000a900473ffffffffffffffffffffffffffffffffffffffff1681565b6060600180548060200260200160405190810160405280929190818152602001828054801561024657602002820191906000526020600020905b8160009054906101000a900473ffffffffffffffffffffffffffffffffffffffff1673ffffffffffffffffffffffffffffffffffffffff16815260200190600101908083116101fc575b5050505050905090565b7f8499f5904876b8309f48286f79884b266c35e0982c55f148d0cc8ea9c7f4b74a33600460009054906101000a900473ffffffffffffffffffffffffffffffffffffffff1673ffffffffffffffffffffffffffffffffffffffff166370a08231336040518263ffffffff1660e01b8152600401808273ffffffffffffffffffffffffffffffffffffffff16815260200191505060206040518083038186803b1580156102fb57600080fd5b505afa15801561030f573d6000803e3d6000fd5b505050506040513d602081101561032557600080fd5b810190808051906020019092919050505034670de0b6b3a7640000348161034857fe5b04604051808573ffffffffffffffffffffffffffffffffffffffff16815260200184815260200183815260200182815260200194505050505060405180910390a1670de0b6b3a7640000600460009054906101000a900473ffffffffffffffffffffffffffffffffffffffff1673ffffffffffffffffffffffffffffffffffffffff166370a08231336040518263ffffffff1660e01b8152600401808273ffffffffffffffffffffffffffffffffffffffff16815260200191505060206040518083038186803b15801561041b57600080fd5b505afa15801561042f573d6000803e3d6000fd5b505050506040513d602081101561044557600080fd5b810190808051906020019092919050505010156104ca576040517f08c379a000000000000000000000000000000000000000000000000000000000815260040180806020018281038252601b8152602001807f53746172733a20496e73756666696369656e742062616c616e6365000000000081525060200191505060405180910390fd5b600460009054906101000a900473ffffffffffffffffffffffffffffffffffffffff1673ffffffffffffffffffffffffffffffffffffffff1663a9059cbb30670de0b6b3a76400006040518363ffffffff1660e01b8152600401808373ffffffffffffffffffffffffffffffffffffffff16815260200182815260200192505050602060405180830381600087803b15801561056557600080fd5b505af1158015610579573d6000803e3d6000fd5b505050506040513d602081101561058f57600080fd5b8101908080519060200190929190505050506001339080600181540180825580915050600190039060005260206000200160009091909190916101000a81548173ffffffffffffffffffffffffffffffffffffffff021916908373ffffffffffffffffffffffffffffffffffffffff1602179055506005600180549050141561061b5761061a610659565b5b565b6001818154811061062a57fe5b906000526020600020016000915054906101000a900473ffffffffffffffffffffffffffffffffffffffff1681565b6000600180549050610669610968565b8161067057fe5b0690506000600460009054906101000a900473ffffffffffffffffffffffffffffffffffffffff1673ffffffffffffffffffffffffffffffffffffffff166370a08231306040518263ffffffff1660e01b8152600401808273ffffffffffffffffffffffffffffffffffffffff16815260200191505060206040518083038186803b1580156106fe57600080fd5b505afa158015610712573d6000803e3d6000fd5b505050506040513d602081101561072857600080fd5b810190808051906020019092919050505090507fb4ae4a1afc9b85f66aaaccca15285dabb32cd5913ee7f84a27e8c1a5d1929c416001838154811061076957fe5b9060005260206000200160009054906101000a900473ffffffffffffffffffffffffffffffffffffffff1660025483604051808473ffffffffffffffffffffffffffffffffffffffff168152602001838152602001828152602001935050505060405180910390a1600460009054906101000a900473ffffffffffffffffffffffffffffffffffffffff1673ffffffffffffffffffffffffffffffffffffffff1663c821e3f9306001858154811061081d57fe5b9060005260206000200160009054906101000a900473ffffffffffffffffffffffffffffffffffffffff16846040518463ffffffff1660e01b8152600401808473ffffffffffffffffffffffffffffffffffffffff1681526020018373ffffffffffffffffffffffffffffffffffffffff1681526020018281526020019350505050602060405180830381600087803b1580156108b957600080fd5b505af11580156108cd573d6000803e3d6000fd5b505050506040513d60208110156108e357600080fd5b810190808051906020019092919050505050600067ffffffffffffffff8111801561090d57600080fd5b5060405190808252806020026020018201604052801561093c5781602001602082028036833780820191505090505b5060019080519060200190610952929190610a02565b5060016002600082825401925050819055505050565b60004260016040516020018083815260200182805480156109de57602002820191906000526020600020905b8160009054906101000a900473ffffffffffffffffffffffffffffffffffffffff1673ffffffffffffffffffffffffffffffffffffffff1681526020019060010190808311610994575b5050925050506040516020818303038152906040528051906020012060001c905090565b828054828255906000526020600020908101928215610a7b579160200282015b82811115610a7a5782518260006101000a81548173ffffffffffffffffffffffffffffffffffffffff021916908373ffffffffffffffffffffffffffffffffffffffff16021790555091602001919060010190610a22565b5b509050610a889190610a8c565b5090565b5b80821115610ac357600081816101000a81549073ffffffffffffffffffffffffffffffffffffffff021916905550600101610a8d565b509056fea2646970667358221220c07ffd82b1b120054056aaaf4f0ecba6dbba52ea4eb4f3be1141405a1fa2efcc64736f6c63430007010033",
  "immutableReferences": {},
  "source": "pragma solidity ^0.7.1;\r\n\r\nimport \"./StarsCoins.sol\";\r\n\r\n/* goal: a contract that allow people to join and once a certain amount of people joined, \r\nthe contract randomly select a winner and pay to the winner \r\n*/\r\n\r\ncontract Lottery {\r\n    address public manager;\r\n    address payable[] public players;\r\n    uint lotteryId;\r\n    \r\n    //play with stars coins\r\n    address payable coinContract = 0x8ADE61A7A0e8E66b479f72f896e0A525478590B1; // contract of Stars \r\n    StarsCoins stars = StarsCoins(coinContract);\r\n\r\n    event AnnounceWinner(address _winner, uint _id, uint _amount);\r\n    event CheckData(address _user, uint256 _balance, uint _inputvalue, uint256 amount);\r\n\r\n    constructor(){\r\n        manager = msg.sender;\r\n        lotteryId = 1;\r\n    }\r\n\r\n    function enter() public payable {        \r\n        //need to decide on CFX <=> stars conversion\r\n        //mapping 1 to 1 ether to stars: 1 eth = 1 stars\r\n        emit CheckData(msg.sender, stars.balanceOf(msg.sender), msg.value, (msg.value / 1e18));\r\n        //require(msg.value == 10 * 1e18, \"Lottery: Insufficient amount\"); //need to finalize conversion\r\n        require(stars.balanceOf(msg.sender) >= (1 * 1e18), \"Stars: Insufficient balance\");\r\n        //require(stars.balanceOf(msg.sender) >= 10, \"Stars: Insufficient balance\");\r\n        //transfer stars to this contract with amount entered.\r\n        stars.transfer(address(this), (1 * 1e18));\r\n\r\n        players.push(msg.sender);\r\n        //check the number of players\r\n        if(players.length == 5){\r\n            pickWinner();\r\n        }\r\n    }\r\n\r\n    function random() private view returns (uint) {\r\n        return uint(keccak256(abi.encodePacked(block.timestamp, players)));\r\n    }\r\n\r\n    function pickWinner() private{\r\n        uint index = random() % players.length;\r\n        \r\n        //award winner with stars coins\r\n        uint256 amount = stars.balanceOf(address(this));\r\n        emit AnnounceWinner(players[index], lotteryId, amount);\r\n        //tranfer balance to winner\r\n        stars._fromTransfer(address(this), players[index], amount);\r\n        \r\n        players = new address payable[](0);\r\n        lotteryId += 1;\r\n    }\r\n\r\n    function getPlayers() public view returns(address payable[] memory) {\r\n        return players;\r\n    }\r\n\r\n    function getPool() public view returns(uint){\r\n        return address(this).balance;\r\n    }\r\n\r\n}",
  "sourcePath": "/c/Users/Jayee Li/Desktop/Tsinghua/Conflux/TIBA_conflux_lottery/Polaris_Lottery/contracts/Lottery.sol",
  "compiler": {
    "name": "solc",
    "version": "0.7.1+commit.f4a555be.Linux.g++"
  },
  "schemaVersion": "3.2.0",
  "updatedAt": "2020-11-21T00:58:01.697Z",
  "devdoc": {
    "kind": "dev",
    "methods": {},
    "version": 1
  },
  "userdoc": {
    "kind": "user",
    "methods": {},
    "version": 1
  }
}