{
  "contractName": "Lottery",
  "abi": [
    {
      "inputs": [],
      "payable": false,
      "stateMutability": "nonpayable",
      "type": "constructor"
    },
    {
      "anonymous": false,
      "inputs": [
        {
          "indexed": false,
          "internalType": "address",
          "name": "_winner",
          "type": "address"
        },
        {
          "indexed": false,
          "internalType": "uint256",
          "name": "_id",
          "type": "uint256"
        },
        {
          "indexed": false,
          "internalType": "uint256",
          "name": "_amount",
          "type": "uint256"
        }
      ],
      "name": "AnnounceWinner",
      "type": "event"
    },
    {
      "constant": true,
      "inputs": [],
      "name": "manager",
      "outputs": [
        {
          "internalType": "address",
          "name": "",
          "type": "address"
        }
      ],
      "payable": false,
      "stateMutability": "view",
      "type": "function"
    },
    {
      "constant": true,
      "inputs": [
        {
          "internalType": "uint256",
          "name": "",
          "type": "uint256"
        }
      ],
      "name": "players",
      "outputs": [
        {
          "internalType": "address payable",
          "name": "",
          "type": "address"
        }
      ],
      "payable": false,
      "stateMutability": "view",
      "type": "function"
    },
    {
      "constant": false,
      "inputs": [],
      "name": "enter",
      "outputs": [],
      "payable": true,
      "stateMutability": "payable",
      "type": "function"
    },
    {
      "constant": false,
      "inputs": [],
      "name": "pickWinner",
      "outputs": [],
      "payable": false,
      "stateMutability": "nonpayable",
      "type": "function"
    },
    {
      "constant": true,
      "inputs": [],
      "name": "getPlayers",
      "outputs": [
        {
          "internalType": "address payable[]",
          "name": "",
          "type": "address[]"
        }
      ],
      "payable": false,
      "stateMutability": "view",
      "type": "function"
    },
    {
      "constant": true,
      "inputs": [],
      "name": "getPool",
      "outputs": [
        {
          "internalType": "uint256",
          "name": "",
          "type": "uint256"
        }
      ],
      "payable": false,
      "stateMutability": "view",
      "type": "function"
    }
  ],
  "bytecode": "0x608060405234801561001057600080fd5b50336000806101000a81548173ffffffffffffffffffffffffffffffffffffffff021916908373ffffffffffffffffffffffffffffffffffffffff16021790555060016002819055506106a9806100686000396000f3fe6080604052600436106100555760003560e01c8063026b1d5f1461005a578063481c6a75146100855780635d495aea146100dc5780638b5b9ccc146100f3578063e97dcb621461015f578063f71d96cb14610169575b600080fd5b34801561006657600080fd5b5061006f6101e4565b6040518082815260200191505060405180910390f35b34801561009157600080fd5b5061009a6101ec565b604051808273ffffffffffffffffffffffffffffffffffffffff1673ffffffffffffffffffffffffffffffffffffffff16815260200191505060405180910390f35b3480156100e857600080fd5b506100f1610211565b005b3480156100ff57600080fd5b506101086103b0565b6040518080602001828103825283818151815260200191508051906020019060200280838360005b8381101561014b578082015181840152602081019050610130565b505050509050019250505060405180910390f35b61016761043e565b005b34801561017557600080fd5b506101a26004803603602081101561018c57600080fd5b81019080803590602001909291905050506104d1565b604051808273ffffffffffffffffffffffffffffffffffffffff1673ffffffffffffffffffffffffffffffffffffffff16815260200191505060405180910390f35b600047905090565b6000809054906101000a900473ffffffffffffffffffffffffffffffffffffffff1681565b600060018054905061022161050d565b8161022857fe5b0690507fb4ae4a1afc9b85f66aaaccca15285dabb32cd5913ee7f84a27e8c1a5d1929c416001828154811061025957fe5b9060005260206000200160009054906101000a900473ffffffffffffffffffffffffffffffffffffffff1660025447604051808473ffffffffffffffffffffffffffffffffffffffff1673ffffffffffffffffffffffffffffffffffffffff168152602001838152602001828152602001935050505060405180910390a1600181815481106102e457fe5b9060005260206000200160009054906101000a900473ffffffffffffffffffffffffffffffffffffffff1673ffffffffffffffffffffffffffffffffffffffff166108fc479081150290604051600060405180830381858888f19350505050158015610354573d6000803e3d6000fd5b5060006040519080825280602002602001820160405280156103855781602001602082028038833980820191505090505b506001908051906020019061039b9291906105a7565b50600160026000828254019250508190555050565b6060600180548060200260200160405190810160405280929190818152602001828054801561043457602002820191906000526020600020905b8160009054906101000a900473ffffffffffffffffffffffffffffffffffffffff1673ffffffffffffffffffffffffffffffffffffffff16815260200190600101908083116103ea575b5050505050905090565b678ac7230489e80000341461045257600080fd5b60013390806001815401808255809150509060018203906000526020600020016000909192909190916101000a81548173ffffffffffffffffffffffffffffffffffffffff021916908373ffffffffffffffffffffffffffffffffffffffff16021790555050600560018054905014156104cf576104ce610211565b5b565b600181815481106104de57fe5b906000526020600020016000915054906101000a900473ffffffffffffffffffffffffffffffffffffffff1681565b600042600160405160200180838152602001828054801561058357602002820191906000526020600020905b8160009054906101000a900473ffffffffffffffffffffffffffffffffffffffff1673ffffffffffffffffffffffffffffffffffffffff1681526020019060010190808311610539575b5050925050506040516020818303038152906040528051906020012060001c905090565b828054828255906000526020600020908101928215610620579160200282015b8281111561061f5782518260006101000a81548173ffffffffffffffffffffffffffffffffffffffff021916908373ffffffffffffffffffffffffffffffffffffffff160217905550916020019190600101906105c7565b5b50905061062d9190610631565b5090565b61067191905b8082111561066d57600081816101000a81549073ffffffffffffffffffffffffffffffffffffffff021916905550600101610637565b5090565b9056fea265627a7a72315820baf41c6092bb2957d20c1d54f0359c4acab55daa8ca8796a817226398614f3a564736f6c63430005100032",
  "source": "pragma solidity ^0.5.16;\n\n/* goal: a contract that allow people to join and once a certain amount of people joined, \nthe contract randomly select a winner and pay to the winner \n*/\n\ncontract Lottery {\n    address public manager;\n    address payable[] public players;\n    uint lotteryId;\n    \n    event AnnounceWinner(address _winner, uint _id, uint _amount);\n\n    constructor() public {\n        manager = msg.sender;\n        lotteryId = 1;\n    }\n\n    function enter() public payable {\n        require(msg.value == 10 * 1e18);\n        \n        players.push(msg.sender);\n        //check the number of players\n        if(players.length == 5){\n            pickWinner();\n        }\n    }\n\n    function random() private view returns (uint) {\n        return uint(keccak256(abi.encodePacked(block.timestamp, players)));\n    }\n\n    \n\n    function pickWinner() public{\n        uint index = random() % players.length;\n        emit AnnounceWinner(players[index], lotteryId, address(this).balance);\n        players[index].transfer(address(this).balance);\n\n        players = new address payable[](0);\n        lotteryId += 1;\n    }\n\n    function getPlayers() public view returns(address payable[] memory) {\n        return players;\n    }\n\n    function getPool() public view returns(uint){\n        return address(this).balance;\n    }\n}",
  "sourcePath": "/Users/samueltang/Conflux Studio/Polaris_Lottery/contracts/Coin.sol",
  "compiler": {
    "name": "solc",
    "version": "0.5.16+commit.9c3226ce.Emscripten.clang"
  },
  "schemaVersion": "3.2.0",
  "updatedAt": "2020-11-15T16:09:48.602Z",
  "devdoc": {
    "methods": {}
  },
  "userdoc": {
    "methods": {}
  }
}