{
  "contractName": "Lottery",
  "abi": [
    {
      "inputs": [],
      "stateMutability": "nonpayable",
      "type": "constructor"
    },
    {
      "anonymous": false,
      "inputs": [
        {
          "indexed": false,
          "internalType": "address",
          "name": "_winner",
          "type": "address"
        },
        {
          "indexed": false,
          "internalType": "uint256",
          "name": "_id",
          "type": "uint256"
        },
        {
          "indexed": false,
          "internalType": "uint256",
          "name": "_amount",
          "type": "uint256"
        }
      ],
      "name": "AnnounceWinner",
      "type": "event"
    },
    {
      "anonymous": false,
      "inputs": [
        {
          "indexed": false,
          "internalType": "address",
          "name": "_user",
          "type": "address"
        },
        {
          "indexed": false,
          "internalType": "uint256",
          "name": "_balance",
          "type": "uint256"
        },
        {
          "indexed": false,
          "internalType": "uint256",
          "name": "amount",
          "type": "uint256"
        }
      ],
      "name": "CheckData",
      "type": "event"
    },
    {
      "inputs": [],
      "name": "manager",
      "outputs": [
        {
          "internalType": "address",
          "name": "",
          "type": "address"
        }
      ],
      "stateMutability": "view",
      "type": "function"
    },
    {
      "inputs": [
        {
          "internalType": "uint256",
          "name": "",
          "type": "uint256"
        }
      ],
      "name": "players",
      "outputs": [
        {
          "internalType": "address payable",
          "name": "",
          "type": "address"
        }
      ],
      "stateMutability": "view",
      "type": "function"
    },
    {
      "inputs": [
        {
          "internalType": "uint256",
          "name": "amount",
          "type": "uint256"
        }
      ],
      "name": "enter",
      "outputs": [],
      "stateMutability": "payable",
      "type": "function"
    },
    {
      "inputs": [],
      "name": "getPlayers",
      "outputs": [
        {
          "internalType": "address payable[]",
          "name": "",
          "type": "address[]"
        }
      ],
      "stateMutability": "view",
      "type": "function"
    },
    {
      "inputs": [],
      "name": "getPool",
      "outputs": [
        {
          "internalType": "uint256",
          "name": "",
          "type": "uint256"
        }
      ],
      "stateMutability": "view",
      "type": "function"
    }
  ],
  "bytecode": "0x6080604052738532d999176d2f5ad5fc0d4d2981f53e62ecf6b1600360006101000a81548173ffffffffffffffffffffffffffffffffffffffff021916908373ffffffffffffffffffffffffffffffffffffffff160217905550600360009054906101000a900473ffffffffffffffffffffffffffffffffffffffff16600460006101000a81548173ffffffffffffffffffffffffffffffffffffffff021916908373ffffffffffffffffffffffffffffffffffffffff1602179055503480156100c857600080fd5b50336000806101000a81548173ffffffffffffffffffffffffffffffffffffffff021916908373ffffffffffffffffffffffffffffffffffffffff1602179055506001600281905550610b74806101206000396000f3fe60806040526004361061004a5760003560e01c8063026b1d5f1461004f578063481c6a751461007a5780638b5b9ccc146100bb578063a59f3e0c14610127578063f71d96cb14610155575b600080fd5b34801561005b57600080fd5b506100646101ba565b6040518082815260200191505060405180910390f35b34801561008657600080fd5b5061008f6101c2565b604051808273ffffffffffffffffffffffffffffffffffffffff16815260200191505060405180910390f35b3480156100c757600080fd5b506100d06101e6565b6040518080602001828103825283818151815260200191508051906020019060200280838360005b838110156101135780820151818401526020810190506100f8565b505050509050019250505060405180910390f35b6101536004803603602081101561013d57600080fd5b8101908080359060200190929190505050610274565b005b34801561016157600080fd5b5061018e6004803603602081101561017857600080fd5b8101908080359060200190929190505050610690565b604051808273ffffffffffffffffffffffffffffffffffffffff16815260200191505060405180910390f35b600047905090565b60008054906101000a900473ffffffffffffffffffffffffffffffffffffffff1681565b6060600180548060200260200160405190810160405280929190818152602001828054801561026a57602002820191906000526020600020905b8160009054906101000a900473ffffffffffffffffffffffffffffffffffffffff1673ffffffffffffffffffffffffffffffffffffffff1681526020019060010190808311610220575b5050505050905090565b600a81146102cd576040517f08c379a0000000000000000000000000000000000000000000000000000000008152600401808060200182810382526022815260200180610b1d6022913960400191505060405180910390fd5b80600460009054906101000a900473ffffffffffffffffffffffffffffffffffffffff1673ffffffffffffffffffffffffffffffffffffffff166370a08231336040518263ffffffff1660e01b8152600401808273ffffffffffffffffffffffffffffffffffffffff16815260200191505060206040518083038186803b15801561035757600080fd5b505afa15801561036b573d6000803e3d6000fd5b505050506040513d602081101561038157600080fd5b81019080805190602001909291905050501015610406576040517f08c379a000000000000000000000000000000000000000000000000000000000815260040180806020018281038252601b8152602001807f53746172733a20496e73756666696369656e742062616c616e6365000000000081525060200191505060405180910390fd5b600460009054906101000a900473ffffffffffffffffffffffffffffffffffffffff1673ffffffffffffffffffffffffffffffffffffffff1663c821e3f93330846040518463ffffffff1660e01b8152600401808473ffffffffffffffffffffffffffffffffffffffff1681526020018373ffffffffffffffffffffffffffffffffffffffff1681526020018281526020019350505050602060405180830381600087803b1580156104b757600080fd5b505af11580156104cb573d6000803e3d6000fd5b505050506040513d60208110156104e157600080fd5b8101908080519060200190929190505050506001339080600181540180825580915050600190039060005260206000200160009091909190916101000a81548173ffffffffffffffffffffffffffffffffffffffff021916908373ffffffffffffffffffffffffffffffffffffffff1602179055506005600180549050141561056d5761056c6106cc565b5b7f8ed3e0efbdd1a816a4c3b1cfc9b46d99d1bdca819d7b5a5246f5794fb589aa3433600460009054906101000a900473ffffffffffffffffffffffffffffffffffffffff1673ffffffffffffffffffffffffffffffffffffffff166370a08231336040518263ffffffff1660e01b8152600401808273ffffffffffffffffffffffffffffffffffffffff16815260200191505060206040518083038186803b15801561061857600080fd5b505afa15801561062c573d6000803e3d6000fd5b505050506040513d602081101561064257600080fd5b810190808051906020019092919050505083604051808473ffffffffffffffffffffffffffffffffffffffff168152602001838152602001828152602001935050505060405180910390a150565b6001818154811061069d57fe5b906000526020600020016000915054906101000a900473ffffffffffffffffffffffffffffffffffffffff1681565b60006001805490506106dc6109db565b816106e357fe5b0690506000600460009054906101000a900473ffffffffffffffffffffffffffffffffffffffff1673ffffffffffffffffffffffffffffffffffffffff166370a08231306040518263ffffffff1660e01b8152600401808273ffffffffffffffffffffffffffffffffffffffff16815260200191505060206040518083038186803b15801561077157600080fd5b505afa158015610785573d6000803e3d6000fd5b505050506040513d602081101561079b57600080fd5b810190808051906020019092919050505090507fb4ae4a1afc9b85f66aaaccca15285dabb32cd5913ee7f84a27e8c1a5d1929c41600183815481106107dc57fe5b9060005260206000200160009054906101000a900473ffffffffffffffffffffffffffffffffffffffff1660025483604051808473ffffffffffffffffffffffffffffffffffffffff168152602001838152602001828152602001935050505060405180910390a1600460009054906101000a900473ffffffffffffffffffffffffffffffffffffffff1673ffffffffffffffffffffffffffffffffffffffff1663c821e3f9306001858154811061089057fe5b9060005260206000200160009054906101000a900473ffffffffffffffffffffffffffffffffffffffff16846040518463ffffffff1660e01b8152600401808473ffffffffffffffffffffffffffffffffffffffff1681526020018373ffffffffffffffffffffffffffffffffffffffff1681526020018281526020019350505050602060405180830381600087803b15801561092c57600080fd5b505af1158015610940573d6000803e3d6000fd5b505050506040513d602081101561095657600080fd5b810190808051906020019092919050505050600067ffffffffffffffff8111801561098057600080fd5b506040519080825280602002602001820160405280156109af5781602001602082028036833780820191505090505b50600190805190602001906109c5929190610a75565b5060016002600082825401925050819055505050565b6000426001604051602001808381526020018280548015610a5157602002820191906000526020600020905b8160009054906101000a900473ffffffffffffffffffffffffffffffffffffffff1673ffffffffffffffffffffffffffffffffffffffff1681526020019060010190808311610a07575b5050925050506040516020818303038152906040528051906020012060001c905090565b828054828255906000526020600020908101928215610aee579160200282015b82811115610aed5782518260006101000a81548173ffffffffffffffffffffffffffffffffffffffff021916908373ffffffffffffffffffffffffffffffffffffffff16021790555091602001919060010190610a95565b5b509050610afb9190610aff565b5090565b5b80821115610b18576000816000905550600101610b00565b509056fe4c6f74746572793a20496e636f7272656374206e756d626572206f66205374617273a2646970667358221220249282178a7e5eff45d5825199ef64fa713979b4a4c4c6832e590bf24314f90764736f6c63430007030033",
  "immutableReferences": {},
  "source": "pragma solidity ^0.7.1;\r\n\r\nimport \"./StarsCoins.sol\";\r\n\r\n/* goal: a contract that allow people to join and once a certain amount of people joined, \r\nthe contract randomly select a winner and pay to the winner \r\n*/\r\n\r\ncontract Lottery {\r\n    address public manager;\r\n    address payable[] public players;\r\n    uint lotteryId;\r\n    \r\n    //play with stars coins\r\n    address payable coinContract = 0x8532d999176d2f5Ad5fc0d4D2981f53e62Ecf6B1; // contract of Stars \r\n    StarsCoins stars = StarsCoins(coinContract);\r\n\r\n    event AnnounceWinner(address _winner, uint _id, uint _amount);\r\n    event CheckData(address _user, uint256 _balance, uint256 amount);\r\n\r\n    constructor(){\r\n        manager = msg.sender;\r\n        lotteryId = 1;\r\n    }\r\n\r\n    function enter(uint256 amount) public payable {        \r\n        //mapping 1 to 1 ether to stars: 0.01 eth = 1 stars\r\n        require(amount == 10, \"Lottery: Incorrect number of Stars\");\r\n        require(stars.balanceOf(msg.sender) >= amount, \"Stars: Insufficient balance\");\r\n\r\n        //transfer stars to this contract with amount entered.\r\n        //stars.transfer(address(this), amount);\r\n        stars._fromTransfer(msg.sender, address(this), amount);\r\n\r\n        players.push(msg.sender);\r\n        //check the number of players\r\n        if(players.length == 5){\r\n            pickWinner();\r\n        }\r\n        \r\n        emit CheckData(msg.sender, stars.balanceOf(msg.sender), amount);\r\n    }\r\n\r\n    function random() private view returns (uint) {\r\n        return uint(keccak256(abi.encodePacked(block.timestamp, players)));\r\n    }\r\n\r\n    function pickWinner() private{\r\n        uint index = random() % players.length;\r\n        \r\n        //award winner with stars coins\r\n        uint256 amount = stars.balanceOf(address(this));\r\n        emit AnnounceWinner(players[index], lotteryId, amount);\r\n        //tranfer balance to winner\r\n        stars._fromTransfer(address(this), players[index], amount);\r\n        \r\n        players = new address payable[](0);\r\n        lotteryId += 1;\r\n    }\r\n\r\n    function getPlayers() public view returns(address payable[] memory) {\r\n        return players;\r\n    }\r\n\r\n    function getPool() public view returns(uint){\r\n        return address(this).balance;\r\n    }\r\n\r\n}",
  "sourcePath": "/c/Users/Jayee Li/Desktop/Tsinghua/Conflux/TIBA_conflux_lottery/Polaris_Lottery/contracts/Lottery.sol",
  "compiler": {
    "name": "solc",
    "version": "0.7.3+commit.9bfce1f6.Linux.g++"
  },
  "schemaVersion": "3.2.0",
  "updatedAt": "2020-11-22T02:28:01.072Z",
  "devdoc": {
    "kind": "dev",
    "methods": {},
    "version": 1
  },
  "userdoc": {
    "kind": "user",
    "methods": {},
    "version": 1
  }
}