{
  "contractName": "Lottery",
  "abi": [
    {
      "inputs": [],
      "stateMutability": "nonpayable",
      "type": "constructor"
    },
    {
      "anonymous": false,
      "inputs": [
        {
          "indexed": false,
          "internalType": "address",
          "name": "_winner",
          "type": "address"
        },
        {
          "indexed": false,
          "internalType": "uint256",
          "name": "_id",
          "type": "uint256"
        },
        {
          "indexed": false,
          "internalType": "uint256",
          "name": "_amount",
          "type": "uint256"
        }
      ],
      "name": "AnnounceWinner",
      "type": "event"
    },
    {
      "inputs": [],
      "name": "manager",
      "outputs": [
        {
          "internalType": "address",
          "name": "",
          "type": "address"
        }
      ],
      "stateMutability": "view",
      "type": "function"
    },
    {
      "inputs": [
        {
          "internalType": "uint256",
          "name": "",
          "type": "uint256"
        }
      ],
      "name": "players",
      "outputs": [
        {
          "internalType": "address payable",
          "name": "",
          "type": "address"
        }
      ],
      "stateMutability": "view",
      "type": "function"
    },
    {
      "inputs": [
        {
          "internalType": "uint256",
          "name": "amount",
          "type": "uint256"
        }
      ],
      "name": "enter",
      "outputs": [],
      "stateMutability": "payable",
      "type": "function"
    },
    {
      "inputs": [],
      "name": "getPlayers",
      "outputs": [
        {
          "internalType": "address payable[]",
          "name": "",
          "type": "address[]"
        }
      ],
      "stateMutability": "view",
      "type": "function"
    },
    {
      "inputs": [],
      "name": "getPool",
      "outputs": [
        {
          "internalType": "uint256",
          "name": "",
          "type": "uint256"
        }
      ],
      "stateMutability": "view",
      "type": "function"
    },
    {
      "inputs": [
        {
          "internalType": "address",
          "name": "account",
          "type": "address"
        }
      ],
      "name": "addToWhitelist",
      "outputs": [],
      "stateMutability": "nonpayable",
      "type": "function"
    }
  ],
  "bytecode": "0x6080604052738532d999176d2f5ad5fc0d4d2981f53e62ecf6b1600360006101000a81548173ffffffffffffffffffffffffffffffffffffffff021916908373ffffffffffffffffffffffffffffffffffffffff160217905550600360009054906101000a900473ffffffffffffffffffffffffffffffffffffffff16600460006101000a81548173ffffffffffffffffffffffffffffffffffffffff021916908373ffffffffffffffffffffffffffffffffffffffff160217905550730888000000000000000000000000000000000001600560006101000a81548173ffffffffffffffffffffffffffffffffffffffff021916908373ffffffffffffffffffffffffffffffffffffffff160217905550600560009054906101000a900473ffffffffffffffffffffffffffffffffffffffff16600660006101000a81548173ffffffffffffffffffffffffffffffffffffffff021916908373ffffffffffffffffffffffffffffffffffffffff16021790555034801561018057600080fd5b50336000806101000a81548173ffffffffffffffffffffffffffffffffffffffff021916908373ffffffffffffffffffffffffffffffffffffffff1602179055506001600281905550610da3806101d86000396000f3fe6080604052600436106100555760003560e01c8063026b1d5f1461005a578063481c6a75146100855780638b5b9ccc146100c6578063a59f3e0c14610132578063e43252d714610160578063f71d96cb146101b1575b600080fd5b34801561006657600080fd5b5061006f610216565b6040518082815260200191505060405180910390f35b34801561009157600080fd5b5061009a6102e1565b604051808273ffffffffffffffffffffffffffffffffffffffff16815260200191505060405180910390f35b3480156100d257600080fd5b506100db610305565b6040518080602001828103825283818151815260200191508051906020019060200280838360005b8381101561011e578082015181840152602081019050610103565b505050509050019250505060405180910390f35b61015e6004803603602081101561014857600080fd5b8101908080359060200190929190505050610393565b005b34801561016c57600080fd5b506101af6004803603602081101561018357600080fd5b81019080803573ffffffffffffffffffffffffffffffffffffffff169060200190929190505050610672565b005b3480156101bd57600080fd5b506101ea600480360360208110156101d457600080fd5b8101908080359060200190929190505050610899565b604051808273ffffffffffffffffffffffffffffffffffffffff16815260200191505060405180910390f35b6000600460009054906101000a900473ffffffffffffffffffffffffffffffffffffffff1673ffffffffffffffffffffffffffffffffffffffff166370a08231306040518263ffffffff1660e01b8152600401808273ffffffffffffffffffffffffffffffffffffffff16815260200191505060206040518083038186803b1580156102a157600080fd5b505afa1580156102b5573d6000803e3d6000fd5b505050506040513d60208110156102cb57600080fd5b8101908080519060200190929190505050905090565b60008054906101000a900473ffffffffffffffffffffffffffffffffffffffff1681565b6060600180548060200260200160405190810160405280929190818152602001828054801561038957602002820191906000526020600020905b8160009054906101000a900473ffffffffffffffffffffffffffffffffffffffff1673ffffffffffffffffffffffffffffffffffffffff168152602001906001019080831161033f575b5050505050905090565b600a81146103ec576040517f08c379a0000000000000000000000000000000000000000000000000000000008152600401808060200182810382526022815260200180610d4c6022913960400191505060405180910390fd5b80600460009054906101000a900473ffffffffffffffffffffffffffffffffffffffff1673ffffffffffffffffffffffffffffffffffffffff166370a08231336040518263ffffffff1660e01b8152600401808273ffffffffffffffffffffffffffffffffffffffff16815260200191505060206040518083038186803b15801561047657600080fd5b505afa15801561048a573d6000803e3d6000fd5b505050506040513d60208110156104a057600080fd5b81019080805190602001909291905050501015610508576040517f08c379a0000000000000000000000000000000000000000000000000000000008152600401808060200182810382526026815260200180610d266026913960400191505060405180910390fd5b600460009054906101000a900473ffffffffffffffffffffffffffffffffffffffff1673ffffffffffffffffffffffffffffffffffffffff1663c821e3f93330846040518463ffffffff1660e01b8152600401808473ffffffffffffffffffffffffffffffffffffffff1681526020018373ffffffffffffffffffffffffffffffffffffffff1681526020018281526020019350505050602060405180830381600087803b1580156105b957600080fd5b505af11580156105cd573d6000803e3d6000fd5b505050506040513d60208110156105e357600080fd5b8101908080519060200190929190505050506001339080600181540180825580915050600190039060005260206000200160009091909190916101000a81548173ffffffffffffffffffffffffffffffffffffffff021916908373ffffffffffffffffffffffffffffffffffffffff1602179055506005600180549050141561066f5761066e6108d5565b5b50565b60008054906101000a900473ffffffffffffffffffffffffffffffffffffffff1673ffffffffffffffffffffffffffffffffffffffff163373ffffffffffffffffffffffffffffffffffffffff1614610733576040517f08c379a00000000000000000000000000000000000000000000000000000000081526004018080602001828103825260208152602001807f4c6f74746572793a204f6e6c79206d616e616765722063616e2061636365737381525060200191505060405180910390fd5b6060600167ffffffffffffffff8111801561074d57600080fd5b5060405190808252806020026020018201604052801561077c5781602001602082028036833780820191505090505b509050818160008151811061078d57fe5b602002602001019073ffffffffffffffffffffffffffffffffffffffff16908173ffffffffffffffffffffffffffffffffffffffff1681525050600660009054906101000a900473ffffffffffffffffffffffffffffffffffffffff1673ffffffffffffffffffffffffffffffffffffffff166310128d3e826040518263ffffffff1660e01b81526004018080602001828103825283818151815260200191508051906020019060200280838360005b8381101561085857808201518184015260208101905061083d565b5050505090500192505050600060405180830381600087803b15801561087d57600080fd5b505af1158015610891573d6000803e3d6000fd5b505050505050565b600181815481106108a657fe5b906000526020600020016000915054906101000a900473ffffffffffffffffffffffffffffffffffffffff1681565b60006001805490506108e5610be4565b816108ec57fe5b0690506000600460009054906101000a900473ffffffffffffffffffffffffffffffffffffffff1673ffffffffffffffffffffffffffffffffffffffff166370a08231306040518263ffffffff1660e01b8152600401808273ffffffffffffffffffffffffffffffffffffffff16815260200191505060206040518083038186803b15801561097a57600080fd5b505afa15801561098e573d6000803e3d6000fd5b505050506040513d60208110156109a457600080fd5b810190808051906020019092919050505090507fb4ae4a1afc9b85f66aaaccca15285dabb32cd5913ee7f84a27e8c1a5d1929c41600183815481106109e557fe5b9060005260206000200160009054906101000a900473ffffffffffffffffffffffffffffffffffffffff1660025483604051808473ffffffffffffffffffffffffffffffffffffffff168152602001838152602001828152602001935050505060405180910390a1600460009054906101000a900473ffffffffffffffffffffffffffffffffffffffff1673ffffffffffffffffffffffffffffffffffffffff1663c821e3f93060018581548110610a9957fe5b9060005260206000200160009054906101000a900473ffffffffffffffffffffffffffffffffffffffff16846040518463ffffffff1660e01b8152600401808473ffffffffffffffffffffffffffffffffffffffff1681526020018373ffffffffffffffffffffffffffffffffffffffff1681526020018281526020019350505050602060405180830381600087803b158015610b3557600080fd5b505af1158015610b49573d6000803e3d6000fd5b505050506040513d6020811015610b5f57600080fd5b810190808051906020019092919050505050600067ffffffffffffffff81118015610b8957600080fd5b50604051908082528060200260200182016040528015610bb85781602001602082028036833780820191505090505b5060019080519060200190610bce929190610c7e565b5060016002600082825401925050819055505050565b6000426001604051602001808381526020018280548015610c5a57602002820191906000526020600020905b8160009054906101000a900473ffffffffffffffffffffffffffffffffffffffff1673ffffffffffffffffffffffffffffffffffffffff1681526020019060010190808311610c10575b5050925050506040516020818303038152906040528051906020012060001c905090565b828054828255906000526020600020908101928215610cf7579160200282015b82811115610cf65782518260006101000a81548173ffffffffffffffffffffffffffffffffffffffff021916908373ffffffffffffffffffffffffffffffffffffffff16021790555091602001919060010190610c9e565b5b509050610d049190610d08565b5090565b5b80821115610d21576000816000905550600101610d09565b509056fe4c6f74746572793a20496e73756666696369656e742062616c616e6365206f662053746172734c6f74746572793a20496e636f7272656374206e756d626572206f66205374617273a26469706673582212200b6e7f8cea0ffb9f0a86c11d0bb2628ef787c729fd651ee048a667a30736cded64736f6c63430007030033",
  "immutableReferences": {},
  "source": "pragma solidity ^0.7.1;\r\n\r\nimport \"./StarsCoins.sol\";\r\nimport \"./SponsorWhitelistControl.sol\";\r\n/* goal: a contract that allow people to join and once a certain amount of people joined, \r\nthe contract randomly select a winner and pay to the winner \r\n*/\r\n\r\ncontract Lottery {\r\n    address public manager;\r\n    address payable[] public players;\r\n    uint lotteryId;\r\n    \r\n    //play with stars coins\r\n    address payable coinContract = 0x8532d999176d2f5Ad5fc0d4D2981f53e62Ecf6B1; // contract of Stars \r\n    StarsCoins stars = StarsCoins(coinContract);\r\n\r\n    //Sponsorship\r\n    address swc_addr = 0x0888000000000000000000000000000000000001; //swc address\r\n    SponsorWhitelistControl swc = SponsorWhitelistControl(swc_addr);\r\n\r\n    event AnnounceWinner(address _winner, uint _id, uint _amount);\r\n    //event CheckData(address _user, uint256 _balance, uint256 amount);\r\n\r\n    constructor(){\r\n        manager = msg.sender;\r\n        lotteryId = 1;\r\n    }\r\n\r\n    function enter(uint256 amount) public payable {        \r\n        //mapping 1 to 1 ether to stars: 0.01 eth = 1 stars\r\n        require(amount == 10, \"Lottery: Incorrect number of Stars\");\r\n        require(stars.balanceOf(msg.sender) >= amount, \"Lottery: Insufficient balance of Stars\");\r\n\r\n        //transfer stars to this contract with amount entered.\r\n        stars._fromTransfer(msg.sender, address(this), amount);\r\n\r\n        players.push(msg.sender);\r\n        //check the number of players\r\n        if(players.length == 5){\r\n            pickWinner();\r\n        }\r\n\r\n        //emit CheckData(msg.sender, stars.balanceOf(msg.sender), amount);\r\n    }\r\n\r\n    function random() private view returns (uint) {\r\n        return uint(keccak256(abi.encodePacked(block.timestamp, players)));\r\n    }\r\n\r\n    function pickWinner() private{\r\n        uint index = random() % players.length;\r\n        \r\n        //award winner with stars coins\r\n        uint256 amount = stars.balanceOf(address(this));\r\n        emit AnnounceWinner(players[index], lotteryId, amount);\r\n        //tranfer balance to winner\r\n        stars._fromTransfer(address(this), players[index], amount);\r\n        \r\n        players = new address payable[](0);\r\n        lotteryId += 1;\r\n    }\r\n\r\n    function getPlayers() public view returns(address payable[] memory) {\r\n        return players;\r\n    }\r\n\r\n    function getPool() public view returns(uint){\r\n        return stars.balanceOf(address(this));\r\n    }\r\n\r\n    function addToWhitelist(address account) public {\r\n        require(msg.sender == manager, \"Lottery: Only manager can access\");\r\n        address[] memory a = new address[](1);\r\n        //a[0] = 0x0000000000000000000000000000000000000000; //all trans will be sponsored\r\n        a[0] = account; //sponsor specific user\r\n        swc.addPrivilege(a);\r\n    }\r\n\r\n}",
  "sourcePath": "/c/Users/Jayee Li/Desktop/Tsinghua/Conflux/TIBA_conflux_lottery/Polaris_Lottery/contracts/Lottery.sol",
  "compiler": {
    "name": "solc",
    "version": "0.7.3+commit.9bfce1f6.Linux.g++"
  },
  "schemaVersion": "3.2.0",
  "updatedAt": "2020-11-22T21:45:53.972Z",
  "devdoc": {
    "kind": "dev",
    "methods": {},
    "version": 1
  },
  "userdoc": {
    "kind": "user",
    "methods": {},
    "version": 1
  }
}