{
  "contractName": "Lottery",
  "abi": [
    {
      "inputs": [
        {
          "internalType": "address payable",
          "name": "_coinContract",
          "type": "address"
        }
      ],
      "stateMutability": "nonpayable",
      "type": "constructor"
    },
    {
      "anonymous": false,
      "inputs": [
        {
          "indexed": false,
          "internalType": "address",
          "name": "_winner",
          "type": "address"
        },
        {
          "indexed": false,
          "internalType": "uint256",
          "name": "_id",
          "type": "uint256"
        },
        {
          "indexed": false,
          "internalType": "uint256",
          "name": "_amount",
          "type": "uint256"
        }
      ],
      "name": "AnnounceWinner",
      "type": "event"
    },
    {
      "inputs": [],
      "name": "manager",
      "outputs": [
        {
          "internalType": "address",
          "name": "",
          "type": "address"
        }
      ],
      "stateMutability": "view",
      "type": "function"
    },
    {
      "inputs": [
        {
          "internalType": "uint256",
          "name": "",
          "type": "uint256"
        }
      ],
      "name": "players",
      "outputs": [
        {
          "internalType": "address payable",
          "name": "",
          "type": "address"
        }
      ],
      "stateMutability": "view",
      "type": "function"
    },
    {
      "inputs": [
        {
          "internalType": "uint256",
          "name": "amount",
          "type": "uint256"
        }
      ],
      "name": "enter",
      "outputs": [],
      "stateMutability": "nonpayable",
      "type": "function"
    },
    {
      "inputs": [],
      "name": "getPlayers",
      "outputs": [
        {
          "internalType": "address payable[]",
          "name": "",
          "type": "address[]"
        }
      ],
      "stateMutability": "view",
      "type": "function"
    },
    {
      "inputs": [],
      "name": "getLotteryId",
      "outputs": [
        {
          "internalType": "uint256",
          "name": "",
          "type": "uint256"
        }
      ],
      "stateMutability": "view",
      "type": "function"
    },
    {
      "inputs": [],
      "name": "getPool",
      "outputs": [
        {
          "internalType": "uint256",
          "name": "",
          "type": "uint256"
        }
      ],
      "stateMutability": "view",
      "type": "function"
    },
    {
      "inputs": [],
      "name": "getLotteryOpen",
      "outputs": [
        {
          "internalType": "bool",
          "name": "",
          "type": "bool"
        }
      ],
      "stateMutability": "view",
      "type": "function"
    },
    {
      "inputs": [
        {
          "internalType": "address",
          "name": "account",
          "type": "address"
        }
      ],
      "name": "addToWhitelist",
      "outputs": [],
      "stateMutability": "nonpayable",
      "type": "function"
    }
  ],
  "bytecode": "0x6080604052600360019054906101000a900473ffffffffffffffffffffffffffffffffffffffff16600460006101000a81548173ffffffffffffffffffffffffffffffffffffffff021916908373ffffffffffffffffffffffffffffffffffffffff160217905550730888000000000000000000000000000000000001600560006101000a81548173ffffffffffffffffffffffffffffffffffffffff021916908373ffffffffffffffffffffffffffffffffffffffff160217905550600560009054906101000a900473ffffffffffffffffffffffffffffffffffffffff16600660006101000a81548173ffffffffffffffffffffffffffffffffffffffff021916908373ffffffffffffffffffffffffffffffffffffffff16021790555034801561012b57600080fd5b50604051610c29380380610c298339818101604052602081101561014e57600080fd5b810190808051906020019092919050505080600360016101000a81548173ffffffffffffffffffffffffffffffffffffffff021916908373ffffffffffffffffffffffffffffffffffffffff160217905550336000806101000a81548173ffffffffffffffffffffffffffffffffffffffff021916908373ffffffffffffffffffffffffffffffffffffffff16021790555060016002819055506000600360006101000a81548160ff02191690831515021790555050610a16806102136000396000f3fe608060405234801561001057600080fd5b50600436106100885760003560e01c8063900aafaf1161005b578063900aafaf1461015e578063a59f3e0c1461017c578063e43252d7146101aa578063f71d96cb146101ee57610088565b8063026b1d5f1461008d578063481c6a75146100ab57806367b19aef146100df5780638b5b9ccc146100ff575b600080fd5b610095610246565b6040518082815260200191505060405180910390f35b6100b3610311565b604051808273ffffffffffffffffffffffffffffffffffffffff16815260200191505060405180910390f35b6100e7610335565b60405180821515815260200191505060405180910390f35b61010761034c565b6040518080602001828103825283818151815260200191508051906020019060200280838360005b8381101561014a57808201518184015260208101905061012f565b505050509050019250505060405180910390f35b6101666103da565b6040518082815260200191505060405180910390f35b6101a86004803603602081101561019257600080fd5b81019080803590602001909291905050506103e4565b005b6101ec600480360360208110156101c057600080fd5b81019080803573ffffffffffffffffffffffffffffffffffffffff169060200190929190505050610735565b005b61021a6004803603602081101561020457600080fd5b810190808035906020019092919050505061095c565b604051808273ffffffffffffffffffffffffffffffffffffffff16815260200191505060405180910390f35b6000600460009054906101000a900473ffffffffffffffffffffffffffffffffffffffff1673ffffffffffffffffffffffffffffffffffffffff166370a08231306040518263ffffffff1660e01b8152600401808273ffffffffffffffffffffffffffffffffffffffff16815260200191505060206040518083038186803b1580156102d157600080fd5b505afa1580156102e5573d6000803e3d6000fd5b505050506040513d60208110156102fb57600080fd5b8101908080519060200190929190505050905090565b60008054906101000a900473ffffffffffffffffffffffffffffffffffffffff1681565b6000600360009054906101000a900460ff16905090565b606060018054806020026020016040519081016040528092919081815260200182805480156103d057602002820191906000526020600020905b8160009054906101000a900473ffffffffffffffffffffffffffffffffffffffff1673ffffffffffffffffffffffffffffffffffffffff1681526020019060010190808311610386575b5050505050905090565b6000600254905090565b60011515600360009054906101000a900460ff1615151461046d576040517f08c379a000000000000000000000000000000000000000000000000000000000815260040180806020018281038252601d8152602001807f4c6f74746572793a204c6f7474657279206973206e6f74206f70656e2e00000081525060200191505060405180910390fd5b600a81146104c6576040517f08c379a00000000000000000000000000000000000000000000000000000000081526004018080602001828103825260228152602001806109bf6022913960400191505060405180910390fd5b80600460009054906101000a900473ffffffffffffffffffffffffffffffffffffffff1673ffffffffffffffffffffffffffffffffffffffff166370a08231336040518263ffffffff1660e01b8152600401808273ffffffffffffffffffffffffffffffffffffffff16815260200191505060206040518083038186803b15801561055057600080fd5b505afa158015610564573d6000803e3d6000fd5b505050506040513d602081101561057a57600080fd5b810190808051906020019092919050505010156105e2576040517f08c379a00000000000000000000000000000000000000000000000000000000081526004018080602001828103825260268152602001806109996026913960400191505060405180910390fd5b600460009054906101000a900473ffffffffffffffffffffffffffffffffffffffff1673ffffffffffffffffffffffffffffffffffffffff1663c821e3f93330846040518463ffffffff1660e01b8152600401808473ffffffffffffffffffffffffffffffffffffffff1681526020018373ffffffffffffffffffffffffffffffffffffffff1681526020018281526020019350505050602060405180830381600087803b15801561069357600080fd5b505af11580156106a7573d6000803e3d6000fd5b505050506040513d60208110156106bd57600080fd5b8101908080519060200190929190505050506001339080600181540180825580915050600190039060005260206000200160009091909190916101000a81548173ffffffffffffffffffffffffffffffffffffffff021916908373ffffffffffffffffffffffffffffffffffffffff16021790555050565b60008054906101000a900473ffffffffffffffffffffffffffffffffffffffff1673ffffffffffffffffffffffffffffffffffffffff163373ffffffffffffffffffffffffffffffffffffffff16146107f6576040517f08c379a00000000000000000000000000000000000000000000000000000000081526004018080602001828103825260208152602001807f4c6f74746572793a204f6e6c79206d616e616765722063616e2061636365737381525060200191505060405180910390fd5b6060600167ffffffffffffffff8111801561081057600080fd5b5060405190808252806020026020018201604052801561083f5781602001602082028036833780820191505090505b509050818160008151811061085057fe5b602002602001019073ffffffffffffffffffffffffffffffffffffffff16908173ffffffffffffffffffffffffffffffffffffffff1681525050600660009054906101000a900473ffffffffffffffffffffffffffffffffffffffff1673ffffffffffffffffffffffffffffffffffffffff166310128d3e826040518263ffffffff1660e01b81526004018080602001828103825283818151815260200191508051906020019060200280838360005b8381101561091b578082015181840152602081019050610900565b5050505090500192505050600060405180830381600087803b15801561094057600080fd5b505af1158015610954573d6000803e3d6000fd5b505050505050565b6001818154811061096957fe5b906000526020600020016000915054906101000a900473ffffffffffffffffffffffffffffffffffffffff168156fe4c6f74746572793a20496e73756666696369656e742062616c616e6365206f662053746172734c6f74746572793a20496e636f7272656374206e756d626572206f66205374617273a2646970667358221220c4d6f5f4bd6053396fd840133f4ad85fcc6d9d5b31c2716045fcbfffd2533f8564736f6c63430007030033",
  "immutableReferences": {},
  "source": "pragma solidity ^0.7.1;\r\n/**************************************************************************\r\n * *Program: BinaryLottery.sol\r\n * *Author: Polaris Lottery Group\r\n * *Version: 1.1\r\n * *Date: 12/02/2020\r\n * *Description: A no-loss lottery contract that executes after lottery \r\n window closes. The contract randomly selects one winner and pays earned \r\n interest amount to the winner, other players will be paid back their \r\n initial lottery bets.\r\n\r\n * *Note: 0.01 eth = 1 stars\r\n **************************************************************************/\r\nimport \"./StarsCoins.sol\";\r\nimport \"./SponsorWhitelistControl.sol\";\r\n\r\ncontract Lottery {\r\n    //declare required variables\r\n    address public manager;\r\n    address payable[] public players;\r\n    uint lotteryId;\r\n    bool LotteryOpen;\r\n\r\n    address payable coinContract;\r\n\r\n    constructor(address payable _coinContract){     \r\n        coinContract = _coinContract; // contract of Stars \r\n\r\n        //initialize variables\r\n        manager = msg.sender;\r\n        lotteryId = 1;\r\n        LotteryOpen = false;\r\n    }\r\n    //play with stars coins\r\n    StarsCoins stars = StarsCoins(coinContract);\r\n    \r\n    //Sponsorship\r\n    address swc_addr = 0x0888000000000000000000000000000000000001; //swc address\r\n    SponsorWhitelistControl swc = SponsorWhitelistControl(swc_addr);\r\n\r\n    //annoucements\r\n    event AnnounceWinner(address _winner, uint _id, uint _amount);\r\n    \r\n    //backend call this function to start lottery\r\n    function startLottery() private{\r\n        require(manager == msg.sender, \"Lottery: permission denied.\");\r\n        LotteryOpen = true;\r\n    }\r\n\r\n    //frontend call this function to enter lottery\r\n    function enter(uint amount) public{\r\n        require(LotteryOpen == true, \"Lottery: Lottery is not open.\");\r\n        \r\n        //mapping 1 to 1 ether to stars: 0.01 eth = 1 stars\r\n        require(amount == 10, \"Lottery: Incorrect number of Stars\");\r\n        require(stars.balanceOf(msg.sender) >= amount, \"Lottery: Insufficient balance of Stars\");\r\n\r\n        //transfer stars to this contract with amount entered.\r\n        stars._fromTransfer(msg.sender, address(this), amount);\r\n\r\n        players.push(msg.sender);\r\n    \r\n    }\r\n\r\n    function random() private view returns (uint) {\r\n        return uint(keccak256(abi.encodePacked(block.timestamp, players)));\r\n    }\r\n\r\n    function pickWinner(uint prize) private{\r\n        require(LotteryOpen == false, \"Lottery: Lottery is open.\");\r\n\r\n        //get random number\r\n        uint index = random() % players.length;\r\n\r\n        //tranfer balance to winner\r\n        stars._fromTransfer(address(this), players[index], prize);\r\n\r\n        emit AnnounceWinner(players[index], lotteryId, prize);\r\n    }\r\n    \r\n    function paybackPlayers() private{\r\n        require(LotteryOpen == false, \"Lottery: Lottery is open.\");\r\n        \r\n        //lottery bets\r\n        uint256 amount = 10;\r\n        //tranfer amount back to players\r\n        for (uint i = 0; i < players.length; i++){\r\n            stars._fromTransfer(address(this), players[i], amount);\r\n        }\r\n    }\r\n\r\n    //backend call to end lottery, pay back players and pick winner\r\n    function endLottery(uint prize) private{\r\n        require(manager == msg.sender, \"Lottery: permission denied.\");\r\n        //close the lottery\r\n        LotteryOpen = false;\r\n\r\n        //pays back players initial bets\r\n        paybackPlayers();\r\n\r\n        //pick the winner\r\n        pickWinner(prize);\r\n        \r\n        //reset players array\r\n        players = new address payable[](0);\r\n        \r\n        lotteryId += 1;\r\n    }\r\n\r\n    //helper functions:\r\n\r\n    function getPlayers() public view returns(address payable[] memory) {\r\n        return players;\r\n    }\r\n    \r\n    function getLotteryId() public view returns(uint) {\r\n        return lotteryId;\r\n    }\r\n\r\n    function getPool() public view returns(uint){\r\n        return stars.balanceOf(address(this));\r\n    }\r\n\r\n    function getLotteryOpen() public view returns(bool){\r\n        return LotteryOpen;\r\n    }\r\n\r\n    function addToWhitelist(address account) public {\r\n        require(msg.sender == manager, \"Lottery: Only manager can access\");\r\n        address[] memory a = new address[](1);\r\n        //a[0] = 0x0000000000000000000000000000000000000000; //all trans will be sponsored\r\n        a[0] = account; //sponsor specific user\r\n        swc.addPrivilege(a);\r\n    }\r\n\r\n    //function enterSponsored(address payable user, uint256 amount) public{\r\n        //mapping 1 to 1 ether to stars: 0.01 eth = 1 stars\r\n      //  require(amount == 10, \"Lottery: Incorrect number of Stars\");\r\n      //  require(stars.balanceOf(user) >= amount, \"Stars: Insufficient balance\");\r\n\r\n        //transfer stars to this contract with amount entered.\r\n      //  stars._fromTransfer(user, address(this), amount);\r\n\r\n      //  players.push(user);\r\n        //check the number of players\r\n      //  if(players.length == 5){\r\n     //       pickWinner();\r\n     //   }\r\n    //}\r\n\r\n}",
  "sourcePath": "/c/Users/Jayee Li/Desktop/Tsinghua/Conflux/TIBA_conflux_lottery/Polaris_Lottery/contracts/Lottery.sol",
  "compiler": {
    "name": "solc",
    "version": "0.7.3+commit.9bfce1f6.Linux.g++"
  },
  "schemaVersion": "3.2.0",
  "updatedAt": "2020-12-06T12:43:07.183Z",
  "devdoc": {
    "kind": "dev",
    "methods": {},
    "version": 1
  },
  "userdoc": {
    "kind": "user",
    "methods": {},
    "version": 1
  }
}