{
  "contractName": "Lottery",
  "abi": [
    {
      "inputs": [],
      "stateMutability": "nonpayable",
      "type": "constructor"
    },
    {
      "anonymous": false,
      "inputs": [
        {
          "indexed": false,
          "internalType": "address",
          "name": "_winner",
          "type": "address"
        },
        {
          "indexed": false,
          "internalType": "uint256",
          "name": "_id",
          "type": "uint256"
        },
        {
          "indexed": false,
          "internalType": "uint256",
          "name": "_amount",
          "type": "uint256"
        }
      ],
      "name": "AnnounceWinner",
      "type": "event"
    },
    {
      "inputs": [],
      "name": "manager",
      "outputs": [
        {
          "internalType": "address",
          "name": "",
          "type": "address"
        }
      ],
      "stateMutability": "view",
      "type": "function"
    },
    {
      "inputs": [
        {
          "internalType": "uint256",
          "name": "",
          "type": "uint256"
        }
      ],
      "name": "players",
      "outputs": [
        {
          "internalType": "address payable",
          "name": "",
          "type": "address"
        }
      ],
      "stateMutability": "view",
      "type": "function"
    },
    {
      "inputs": [
        {
          "internalType": "uint256",
          "name": "amount",
          "type": "uint256"
        }
      ],
      "name": "enter",
      "outputs": [],
      "stateMutability": "nonpayable",
      "type": "function"
    },
    {
      "inputs": [
        {
          "internalType": "address payable",
          "name": "user",
          "type": "address"
        },
        {
          "internalType": "uint256",
          "name": "amount",
          "type": "uint256"
        }
      ],
      "name": "enterSponsored",
      "outputs": [],
      "stateMutability": "nonpayable",
      "type": "function"
    },
    {
      "inputs": [],
      "name": "getPlayers",
      "outputs": [
        {
          "internalType": "address payable[]",
          "name": "",
          "type": "address[]"
        }
      ],
      "stateMutability": "view",
      "type": "function"
    },
    {
      "inputs": [],
      "name": "getPool",
      "outputs": [
        {
          "internalType": "uint256",
          "name": "",
          "type": "uint256"
        }
      ],
      "stateMutability": "view",
      "type": "function"
    }
  ],
  "bytecode": "0x608060405273855d31d814dce772976cc94d1f3e2b16e08fbb80600360006101000a81548173ffffffffffffffffffffffffffffffffffffffff021916908373ffffffffffffffffffffffffffffffffffffffff160217905550600360009054906101000a900473ffffffffffffffffffffffffffffffffffffffff16600460006101000a81548173ffffffffffffffffffffffffffffffffffffffff021916908373ffffffffffffffffffffffffffffffffffffffff1602179055503480156100c857600080fd5b50336000806101000a81548173ffffffffffffffffffffffffffffffffffffffff021916908373ffffffffffffffffffffffffffffffffffffffff1602179055506001600281905550610da1806101206000396000f3fe608060405234801561001057600080fd5b50600436106100625760003560e01c8063026b1d5f14610067578063481c6a75146100855780638b5b9ccc146100b95780639ed6b7cc14610118578063a59f3e0c14610166578063f71d96cb14610194575b600080fd5b61006f6101ec565b6040518082815260200191505060405180910390f35b61008d6101f4565b604051808273ffffffffffffffffffffffffffffffffffffffff16815260200191505060405180910390f35b6100c1610218565b6040518080602001828103825283818151815260200191508051906020019060200280838360005b838110156101045780820151818401526020810190506100e9565b505050509050019250505060405180910390f35b6101646004803603604081101561012e57600080fd5b81019080803573ffffffffffffffffffffffffffffffffffffffff169060200190929190803590602001909291905050506102a6565b005b6101926004803603602081101561017c57600080fd5b81019080803590602001909291905050506105a3565b005b6101c0600480360360208110156101aa57600080fd5b810190808035906020019092919050505061089f565b604051808273ffffffffffffffffffffffffffffffffffffffff16815260200191505060405180910390f35b600047905090565b60008054906101000a900473ffffffffffffffffffffffffffffffffffffffff1681565b6060600180548060200260200160405190810160405280929190818152602001828054801561029c57602002820191906000526020600020905b8160009054906101000a900473ffffffffffffffffffffffffffffffffffffffff1673ffffffffffffffffffffffffffffffffffffffff1681526020019060010190808311610252575b5050505050905090565b600a81146102ff576040517f08c379a0000000000000000000000000000000000000000000000000000000008152600401808060200182810382526022815260200180610d4a6022913960400191505060405180910390fd5b80600460009054906101000a900473ffffffffffffffffffffffffffffffffffffffff1673ffffffffffffffffffffffffffffffffffffffff166370a08231846040518263ffffffff1660e01b8152600401808273ffffffffffffffffffffffffffffffffffffffff16815260200191505060206040518083038186803b15801561038957600080fd5b505afa15801561039d573d6000803e3d6000fd5b505050506040513d60208110156103b357600080fd5b81019080805190602001909291905050501015610438576040517f08c379a000000000000000000000000000000000000000000000000000000000815260040180806020018281038252601b8152602001807f53746172733a20496e73756666696369656e742062616c616e6365000000000081525060200191505060405180910390fd5b600460009054906101000a900473ffffffffffffffffffffffffffffffffffffffff1673ffffffffffffffffffffffffffffffffffffffff1663c821e3f98330846040518463ffffffff1660e01b8152600401808473ffffffffffffffffffffffffffffffffffffffff1681526020018373ffffffffffffffffffffffffffffffffffffffff1681526020018281526020019350505050602060405180830381600087803b1580156104e957600080fd5b505af11580156104fd573d6000803e3d6000fd5b505050506040513d602081101561051357600080fd5b8101908080519060200190929190505050506001829080600181540180825580915050600190039060005260206000200160009091909190916101000a81548173ffffffffffffffffffffffffffffffffffffffff021916908373ffffffffffffffffffffffffffffffffffffffff1602179055506005600180549050141561059f5761059e6108db565b5b5050565b600a81146105fc576040517f08c379a0000000000000000000000000000000000000000000000000000000008152600401808060200182810382526022815260200180610d4a6022913960400191505060405180910390fd5b80600460009054906101000a900473ffffffffffffffffffffffffffffffffffffffff1673ffffffffffffffffffffffffffffffffffffffff166370a08231336040518263ffffffff1660e01b8152600401808273ffffffffffffffffffffffffffffffffffffffff16815260200191505060206040518083038186803b15801561068657600080fd5b505afa15801561069a573d6000803e3d6000fd5b505050506040513d60208110156106b057600080fd5b81019080805190602001909291905050501015610735576040517f08c379a000000000000000000000000000000000000000000000000000000000815260040180806020018281038252601b8152602001807f53746172733a20496e73756666696369656e742062616c616e6365000000000081525060200191505060405180910390fd5b600460009054906101000a900473ffffffffffffffffffffffffffffffffffffffff1673ffffffffffffffffffffffffffffffffffffffff1663c821e3f93330846040518463ffffffff1660e01b8152600401808473ffffffffffffffffffffffffffffffffffffffff1681526020018373ffffffffffffffffffffffffffffffffffffffff1681526020018281526020019350505050602060405180830381600087803b1580156107e657600080fd5b505af11580156107fa573d6000803e3d6000fd5b505050506040513d602081101561081057600080fd5b8101908080519060200190929190505050506001339080600181540180825580915050600190039060005260206000200160009091909190916101000a81548173ffffffffffffffffffffffffffffffffffffffff021916908373ffffffffffffffffffffffffffffffffffffffff1602179055506005600180549050141561089c5761089b6108db565b5b50565b600181815481106108ac57fe5b906000526020600020016000915054906101000a900473ffffffffffffffffffffffffffffffffffffffff1681565b60006001805490506108eb610bea565b816108f257fe5b0690506000600460009054906101000a900473ffffffffffffffffffffffffffffffffffffffff1673ffffffffffffffffffffffffffffffffffffffff166370a08231306040518263ffffffff1660e01b8152600401808273ffffffffffffffffffffffffffffffffffffffff16815260200191505060206040518083038186803b15801561098057600080fd5b505afa158015610994573d6000803e3d6000fd5b505050506040513d60208110156109aa57600080fd5b810190808051906020019092919050505090507fb4ae4a1afc9b85f66aaaccca15285dabb32cd5913ee7f84a27e8c1a5d1929c41600183815481106109eb57fe5b9060005260206000200160009054906101000a900473ffffffffffffffffffffffffffffffffffffffff1660025483604051808473ffffffffffffffffffffffffffffffffffffffff168152602001838152602001828152602001935050505060405180910390a1600460009054906101000a900473ffffffffffffffffffffffffffffffffffffffff1673ffffffffffffffffffffffffffffffffffffffff1663c821e3f93060018581548110610a9f57fe5b9060005260206000200160009054906101000a900473ffffffffffffffffffffffffffffffffffffffff16846040518463ffffffff1660e01b8152600401808473ffffffffffffffffffffffffffffffffffffffff1681526020018373ffffffffffffffffffffffffffffffffffffffff1681526020018281526020019350505050602060405180830381600087803b158015610b3b57600080fd5b505af1158015610b4f573d6000803e3d6000fd5b505050506040513d6020811015610b6557600080fd5b810190808051906020019092919050505050600067ffffffffffffffff81118015610b8f57600080fd5b50604051908082528060200260200182016040528015610bbe5781602001602082028036833780820191505090505b5060019080519060200190610bd4929190610c84565b5060016002600082825401925050819055505050565b6000426001604051602001808381526020018280548015610c6057602002820191906000526020600020905b8160009054906101000a900473ffffffffffffffffffffffffffffffffffffffff1673ffffffffffffffffffffffffffffffffffffffff1681526020019060010190808311610c16575b5050925050506040516020818303038152906040528051906020012060001c905090565b828054828255906000526020600020908101928215610cfd579160200282015b82811115610cfc5782518260006101000a81548173ffffffffffffffffffffffffffffffffffffffff021916908373ffffffffffffffffffffffffffffffffffffffff16021790555091602001919060010190610ca4565b5b509050610d0a9190610d0e565b5090565b5b80821115610d4557600081816101000a81549073ffffffffffffffffffffffffffffffffffffffff021916905550600101610d0f565b509056fe4c6f74746572793a20496e636f7272656374206e756d626572206f66205374617273a26469706673582212204d4fd27d160eb1eae01a0b156877a68b530bd12f7f5e8632667a77eee8a1061c64736f6c63430007010033",
  "immutableReferences": {},
  "source": "pragma solidity ^0.7.1;\n\nimport \"./Star.sol\";\n\n/* goal: a contract that allow people to join and once a certain amount of people joined, \nthe contract randomly select a winner and pay to the winner \n*/\n\ncontract Lottery {\n    address public manager;\n    address payable[] public players;\n    uint lotteryId;\n    \n    //play with stars coins\n    address payable coinContract = 0x855D31D814Dce772976cc94D1f3E2b16e08fBB80; // contract of Stars \n    StarsCoins stars = StarsCoins(coinContract);\n\n    event AnnounceWinner(address _winner, uint _id, uint _amount);\n    //event CheckData(address _user, uint256 _balance, uint256 amount);\n\n    constructor(){\n        manager = msg.sender;\n        lotteryId = 1;\n    }\n\n    function enter(uint256 amount) public{        \n        //mapping 1 to 1 ether to stars: 0.01 eth = 1 stars\n        require(amount == 10, \"Lottery: Incorrect number of Stars\");\n        require(stars.balanceOf(msg.sender) >= amount, \"Stars: Insufficient balance\");\n\n        //transfer stars to this contract with amount entered.\n        stars._fromTransfer(msg.sender, address(this), amount);\n\n        players.push(msg.sender);\n        //check the number of players\n        if(players.length == 5){\n            pickWinner();\n        }\n\n        //emit CheckData(msg.sender, stars.balanceOf(msg.sender), amount);\n    }\n\n    function enterSponsored(address payable user, uint256 amount) public{\n        //mapping 1 to 1 ether to stars: 0.01 eth = 1 stars\n        require(amount == 10, \"Lottery: Incorrect number of Stars\");\n        require(stars.balanceOf(user) >= amount, \"Stars: Insufficient balance\");\n\n        //transfer stars to this contract with amount entered.\n        stars._fromTransfer(user, address(this), amount);\n\n        players.push(user);\n        //check the number of players\n        if(players.length == 5){\n            pickWinner();\n        }\n    }\n\n    function random() private view returns (uint) {\n        return uint(keccak256(abi.encodePacked(block.timestamp, players)));\n    }\n\n    function pickWinner() private{\n        uint index = random() % players.length;\n        \n        //award winner with stars coins\n        uint256 amount = stars.balanceOf(address(this));\n        emit AnnounceWinner(players[index], lotteryId, amount);\n        //tranfer balance to winner\n        stars._fromTransfer(address(this), players[index], amount);\n        \n        players = new address payable[](0);\n        lotteryId += 1;\n    }\n\n    function getPlayers() public view returns(address payable[] memory) {\n        return players;\n    }\n\n    function getPool() public view returns(uint){\n        return address(this).balance;\n    }\n\n}",
  "sourcePath": "/Users/samueltang/Conflux Studio/StarToken/contracts/Lottery.sol",
  "compiler": {
    "name": "solc",
    "version": "0.7.1+commit.f4a555be.Linux.g++"
  },
  "schemaVersion": "3.2.0",
  "updatedAt": "2020-11-22T16:41:47.690Z",
  "devdoc": {
    "kind": "dev",
    "methods": {},
    "version": 1
  },
  "userdoc": {
    "kind": "user",
    "methods": {},
    "version": 1
  }
}